:020000040800F2
:1000000048CA0020E5390008CD020008CF020008E8
:10001000D3020008D7020008DB020008000000003D
:10002000000000000000000000000000DF020008E7
:10003000E102000800000000E3020008E5020008F9
:10004000FF390008FF390008FF390008FF390008B0
:10005000FF390008FF390008FF390008FF390008A0
:10006000FF390008FF390008FF390008FF39000890
:10007000FF390008FF390008FF390008FF39000880
:10008000FF390008FF390008FF390008FF39000870
:10009000FF390008FF390008FF390008FF39000860
:1000A000FF390008FF390008FF390008FF39000850
:1000B000FF390008FF390008519B0008FF3900088C
:1000C000FF390008FF390008FF390008FF39000830
:1000D000FF3900085B390008FF390008FF390008C4
:1000E000FF390008FF390008FF390008FF39000810
:1000F000FF390008FF390008FF390008FF39000800
:10010000FF390008F5250008FF390008FF3900080D
:10011000FF390008FF390008FF390008FF390008DF
:10012000FF390008FF390008FF390008FF390008CF
:1001300000F002F800F06BF80AA090E8000C82448E
:100140008344AAF10107DA4501D100F060F8AFF26B
:10015000090EBAE80F0013F0010F18BFFB1A43F0A5
:100160000103184720DC000040DC00000A444FF087
:10017000000C10F8013B13F0070408BF10F8014B06
:100180001D1108BF10F8015B641E05D010F8016B4B
:10019000641E01F8016BF9D113F0080F1EBF10F8AF
:1001A000014BAD1C0C1B09D16D1E58BF01F801CBD2
:1001B000FAD505E014F8016B01F8016B6D1EF9D555
:1001C0009142D6D37047000000230024002500266A
:1001D000103A28BF78C1FBD8520728BF30C148BFAA
:1001E0000B60704764290AF0E78675290AF0E486F7
:1001F00078290AF01D8763290BF0BC8173290BF065
:10020000C181002070471FB51FBD10B510BD0BF098
:100210001DFA1146FFF7F7FF00F008F80BF03BFA64
:1002200003B4FFF7F2FF03BC03F03CFB03F0CAFA90
:100230004FF4A06003F0F6FB4FF4E13003F041FB14
:100240001C4841684820884700F03EF900F060F9FA
:1002500002F057FE00F0FCFA02F01AFF002005F051
:1002600092FC09F001F814490122086813A107F073
:100270008AF911490122486811A107F084F902F0B6
:10028000F8FA00200F4908600F49C1F894010AE00C
:100290000C48006808B9012000E000200949086006
:1002A000C82003F0CCFA0AF060FC0028F0D100BFAF
:1002B000FEE700003C0100207C000020303A0000F6
:1002C000313A00009801234200002342704700BFEA
:1002D000FEE700BFFEE700BFFEE700BFFEE7704796
:1002E00070477047704700000CB5002001900090E7
:1002F0006C48006840F480306A49086000BF694873
:10030000006800F4003000900198401C01900098B3
:1003100018B90198B0F5A06FF1D16248006800F4F7
:10032000003010B10120009001E000200090009802
:10033000012843D15C48006840F010005A49086029
:100340000846006820F0030008600846006840F096
:1003500002000860534840685249486008464068B7
:1003600048600846406840F480604860084640683D
:1003700020F47C1048600846406840F4E81048606B
:100380000846006840F08070086000BF454800687B
:1003900000F000700028F9D04248406820F00300C7
:1003A000404948600846406840F00200486000BF8D
:1003B0003C48406800F00C000828F9D10CBD10B58D
:1003C000FFF792FF10BD10B53648006840F00100FD
:1003D000344908600846406834490840314948605B
:1003E00008460068324908402E49086008460068FF
:1003F00020F4802008600846406820F4FE00486031
:100400004FF41F008860FFF7DAFF4FF000602949C2
:10041000086010BD10B5002100200022214B5B6850
:1004200003F00C0121B1042906D0082928D107E0E6
:10043000214B224C236027E01F4B204C236023E0FC
:10044000184B5B6803F47010164B5B6803F4803242
:10045000022303EB904022B9194B4343174C23600E
:100460000DE0104B5B6803F4003323B1144B43439E
:10047000124C236003E0104B4343104C236003E015
:100480000D4B0E4C236000BF00BF064B5B68C3F3EF
:1004900003130C4CE15C094B1B68CB40074C2360F9
:1004A00010BD000000100240002002400000FFF8D4
:1004B000FFFFF6FE08ED00E000127A0000000020C9
:1004C00000093D000400002008B50121402003F090
:1004D00033FE4020ADF8000010208DF8030003200B
:1004E0008DF802006946094803F06AFB402107487D
:1004F00003F013FC2020ADF800006946034803F028
:100500005FFB2021014803F008FC08BD00180140F2
:1005100008B50121442003F00FFE1C20ADF80000B7
:1005200048208DF803006946354803F049FB012057
:10053000ADF8000028208DF803006946314803F02B
:100540003FFB08BD10B5044614B101202E490870C8
:100550002D480078002837D00821294803F0C3FB34
:1005600078B11021264803F0BEFB50B10421244885
:1005700003F0B9FB28B10121224803F0B4FB0128A4
:1005800022D10A2003F05BF900201F4908700821DE
:100590001B4803F0A8FB08B9012010BD1021184822
:1005A00003F0A1FB08B90220F7E70421144803F087
:1005B0009AFB08B90320F0E70121124803F093FBEE
:1005C00001281BD10420E8E708210D4803F08BFB2C
:1005D000012813D110210A4803F085FB01280DD111
:1005E0000421074803F07FFB012807D101210548BA
:1005F00003F079FB10B90120034908700020CCE713
:1006000000180140000801401400002070B50546A4
:10061000002405E0601CC4B2C82C01DD002070BDC0
:100620000221774803F03BFF0028F3D029467448A5
:1006300003F0E2FE002405E0601CC4B2C82C01DD1A
:100640000020ECE701216E4803F029FF0028F3D0D9
:100650006B4803F0D3FEC0B2E1E700B587B00121DB
:1006600041F2040003F068FDE020ADF81800182006
:100670008DF81B0003208DF81A0006A9614803F0CD
:100680009FFAE0215F4803F048FB0020ADF804002A
:100690004FF48270ADF806000020ADF8080002208B
:1006A000ADF80A000120ADF80C004002ADF80E00D4
:1006B0003820ADF810000020ADF812000720ADF88A
:1006C000140001A9504803F0C1FD01214E4803F078
:1006D00062FEFF20FFF79AFF07B000BD10B5044689
:1006E000494800884FF6C7710840474908800846C6
:1006F0000088204308800121434803F04CFE10BDD0
:1007000070B50546002405E0601CC4B2C82C01DDAC
:10071000002070BD02213C4803F0C1FE0028F3D048
:100720002946394803F068FE002405E0601CC4B285
:10073000C82C01DD0020ECE70121334803F0AFFEB7
:100740000028F3D0304803F059FEC0B2E1E700B50D
:1007500087B00121082003F0EFFC0121880303F09A
:10076000F8FC4FF46040ADF8180018208DF81B001D
:1007700003208DF81A0006A9244803F021FA4FF44B
:100780006041224803F0C9FA0020ADF804004FF49C
:100790008270ADF806000020ADF808000220ADF828
:1007A0000A000120ADF80C004002ADF80E00382020
:1007B000ADF810000020ADF812000720ADF81400CD
:1007C00001A90F4803F042FD01210D4803F0E3FDAC
:1007D000FF20FFF71BFF07B000BD10B50446084817
:1007E00000884FF6C7710840054908800846008810
:1007F000204308800121024803F0CDFD10BD000018
:10080000003800400008014000300140000C014069
:1008100010B500240020D14908609020FFF7F6FEB3
:100820000020FFF7F3FE0020FFF7F0FE0020FFF7A7
:10083000EDFEFF20FFF7EAFE44EA0024FF20FFF769
:10084000E5FE04430120C649C1F8B001204610BDB1
:1008500008B50121082003F06FFC4FF48050ADF87B
:10086000000010208DF8030003208DF80200694677
:10087000BC4803F0A5F94FF48051BA4803F04DFA93
:100880000120B6490860FFF762FF0020FFF7A5FFCF
:10089000FFF7BEFFB449088008BD10B50024002052
:1008A000AE4908600520FFF7B1FEFF20FFF7AEFE5E
:1008B00004460120AA49C1F8B001204610BD10B578
:1008C00004460020A54908600120FFF79FFE20464E
:1008D000FFF79CFE0120A249C1F8B00110BD10B580
:1008E00000209E4908600620FFF790FE01209C49E9
:1008F000C1F8B00110BD10B500209849086004206F
:10090000FFF784FE01209649C1F8B00110BD2DE922
:10091000F04106460C461746002090490860032027
:10092000FFF774FEC4F30740FFF770FEC4F307201F
:10093000FFF76CFEE0B2FFF769FE002505E0FF203F
:10094000FFF764FE7055681C85B2BD42F7DB0120DD
:1009500082490860BDE8F08110B500BFFFF79DFF38
:1009600000F001000028F9D110BD2DE9F041064644
:100970000C461746FFF7B3FF0020784908600220B5
:10098000FFF744FEC4F30740FFF740FEC4F307201F
:10099000FFF73CFEE0B2FFF739FE002504E0705D92
:1009A000FFF734FE681C85B2BD42F8DB01206B49BD
:1009B0000860FFF7D1FFBDE8F0812DE9F04107465F
:1009C0000E461446F0B2C0F58075AC4200DC2546F8
:1009D00012E02A4631463846FFF7C7FFAC4200D145
:1009E0000BE02F442E44601B84B2B4F5807F02DDFF
:1009F0004FF4807500E02546EBE700BFBDE8F081CD
:100A000010B50446214659A00AF07AFA2403FFF7EC
:100A100066FFFFF7A1FF0020504908602020FFF784
:100A2000F5FDC4F30740FFF7F1FDC4F30720FFF71E
:100A3000EDFDE0B2FFF7EAFD01204949C1F8B00140
:100A4000FFF78AFF10BD2DE9F05F81460F4616467D
:100A5000DFF820B14FEA1738C7F30B0ACAF5805404
:100A6000A64200DC344644E04FEA08314FF480529D
:100A70005846FFF74CFF002508E00AEB05001BF87D
:100A80000000FF2800D003E0681C85B2A542F4DB1B
:100A900000BFA54216DA4046FFF7B2FF002507E087
:100AA00019F8050005EB0A010BF80100681C85B276
:100AB000A542F5DB4FEA08314FF480525846FFF764
:100AC0007CFF04E0224639464846FFF776FFA642FF
:100AD00000D10FE008F101084FF0000AA1442744BB
:100AE000301B86B2B6F5805F02DD4FF4805400E023
:100AF0003446B9E700BFBDE8F09F10B5FFF7EFFE41
:100B0000FFF72AFF002015490860C720FFF77EFD88
:100B100001201349C1F8B001FFF71EFF10BD10B549
:100B200000200E490860B920FFF770FD01200C4934
:100B3000C1F8B001032002F05EFE10BD10B5002028
:100B400006490860AB20FFF761FD01200449C1F8A8
:100B5000B001032002F04FFE10BD0000B081214221
:100B600000802142000C01401600002066653A25F5
:100B7000780D0A003002002001460020012900D033
:100B800011B9FE4B197000E0262070470146FC4A5F
:100B9000506820F0FF0008435060704770B504466D
:100BA00005E0F748456B05F0450000B100E0F8E7C7
:100BB00000BF042004F081FE20B1042004F087FE71
:100BC000032070BD012004F078FE20B1012004F064
:100BD0007EFE0120F5E7EA480069A04201D010201E
:100BE000EFE740F2FF50E649886308464069082174
:100BF0000840C0B2E5E72DE9FC4107460D46002656
:100C000000240020009001900820DE490860102098
:100C10004860402088600020C8604FF48060086110
:100C2000084604F0D3FD1020FFF7B8FF044614B1C6
:100C30002046BDE8FC81D44800880004D149086002
:100C400037204860402088600020C8604FF48060F2
:100C50000861084604F0BAFD3720FFF79FFF0446FD
:100C60000CB12046E5E74FF0FF30C8490860082086
:100C70004860302088600220C860002008610120A0
:100C80004861084604F0CBFD0020BE4908603320CF
:100C90004860402088600020C8604FF48060086190
:100CA000084604F093FD3320FFF778FF04460CB1AB
:100CB0002046BEE70CE04FF4001004F0FEFD38B112
:100CC00004F0CFFD4DF82600761C022E00D306E07E
:100CD000AB48406B40F22A6108400028EBD000BFCF
:100CE000082004F0EAFD20B1082004F0F0FD042003
:100CF0009FE7022004F0E1FD20B1022004F0E7FDAF
:100D0000022096E7202004F0D8FD20B1202004F036
:100D1000DEFD06208DE74FF4007004F0CEFD28B113
:100D20004FF4007004F0D3FD072082E740F2FF503B
:100D300004F0CDFD00980006009901F47F4140EADF
:100D40000120009901F47F0140EA1120009940EA56
:100D50001160686001980006019901F47F4140EA42
:100D60000120019901F47F0140EA1120019940EA34
:100D70001160286020465CE77CB505460024002011
:100D80000090019000260DB1022600E000267C486C
:100D9000406900F0007008B10E207CBD7A490988D6
:100DA00088B26946FFF727FF04460CB12046F4E7F6
:100DB000019800F4802060B37348008800047149F2
:100DC000086037204860402088600020C8604FF4E9
:100DD00080600861084604F0F9FC3720FFF7DEFE6A
:100DE00004460CB12046D8E76648066006206549EF
:100DF0004860402088600020C8604FF4806008612F
:100E0000084604F0E3FC0620FFF7C8FE044620462F
:100E1000C3E72520C1E770B5044600255C4800788B
:100E2000032801D1272070BD5948007838B15848AF
:100E30000078012803D056480078022818D1022CE7
:100E400001D32720EFE7E0B2FFF796FF05467DB913
:100E50004B48406820F4C050494948600846406803
:100E6000A1B240EAC120464948600846406848604F
:100E70002846D8E710B50446424804600720414997
:100E80004860402088600020C8604FF4806008619E
:100E9000084604F09BFC0720FFF780FE10BDF0B56C
:100EA0000146002000223A4B1B7881F85630364B21
:100EB0001B88A1F85430374B1B681A0E93090B702E
:100EC000C2F383034B7002F003038B70314B1B683A
:100ED000C3F30742CA702F4B1B88C3F307220A7162
:100EE0002C4B1A784A715B681A0E1301CB80294B80
:100EF0005B68C3F30742CB8843EA1213CB8002F04E
:100F00000F030B72234B9B88C3F30722D3094B7249
:100F1000C2F380138B72C2F34013CB72C2F300137F
:100F20000B7300234B731A4B1B783BB1184B1B7888
:100F3000012B03D0164B1B78032B5ED193071B0D9F
:100F40000B61144B1A790B6943EA82030B61114B55
:100F50009B681A0E0B6943EA92130B61C2F3C2033A
:100F60000B7502F007034B750A4B9B68C3F30742EE
:100F700053098B75C2F38203CB750DE0200000206E
:100F800000800140481200201C0000205C1200205C
:100F9000180000207412002093075B0F0B76FE4BA5
:100FA0001B89C3F307220B7E43EAD2130B760B692E
:100FB0005B1C0024C1E912340B7E9B1C012606FA3F
:100FC00003F3DE17D1E91245A4FB037C05FB03C341
:100FD00004FB0633C1E912730C7A0123A3400B65AD
:100FE0000024D1E912560B6DA5FB037C06FB03C35D
:100FF00005FB0433C1E912732CE0E84B1B78022B8C
:1010000028D1E54B1A7993069B0A0B61E24B9B684A
:101010001A0E0B6943EA02230B61DF4B9B68C3F393
:1010200007420B6913430B61DB4B1B89C3F3072298
:101030000B695B1C4FF40074A3FB043566000027AA
:10104000A3FB064C05FB06C503FB0753C1E912438E
:1010500073100B65C2F3801301F8193F93065B0E02
:101060004B70CD4B1A7A4B7843EAD2134B7002F097
:101070007F038B70C84BDB681A0ED309CB70C2F3A9
:1010800041130B71C2F382034B7193071B0F8B71DA
:10109000C14BDB68C3F307428B7943EA92138B7130
:1010A000C2F34013CB7100230B7202F001034B72A9
:1010B000B94B9B89C3F30722D3098B72C2F3801308
:1010C000CB72C2F340130B73C2F300134B73C2F322
:1010D00081038B7302F00303CB73AF4B1A7B53086E
:1010E0000B7401234B74AE4B1B681A0ECA7419396A
:1010F000AB4B1B68C3F307421402CC85A84B1B887B
:10110000C3F30722CB8D1343CB85A54B1A78140666
:101110000C635B681A0E0B6B43EA02440C63A04B32
:101120005B68C3F307420B6B43EA02240C639C4BDE
:101130009B88C3F307220B6B13430B63984B1A79FD
:1011400034235A54964B9B681A0E35235A54944BA9
:101150009B68C3F3074214068C63914B1B89C3F34E
:1011600007228B6B43EA02448C638D4B1A7A8B6B9C
:1011700043EA02248C638A4BDB681A0E8B6B1343A1
:101180008B63874BDB68C3F307423C235B5C43EA1A
:1011900012143C235C5413071C0DCC87804B9B8995
:1011A000C3F30722CB8F1343CB877D4B1A7B5408A5
:1011B00040235C54012441235C54F0BD70B50026EB
:1011C0004FF4803505E07748446B04F0450000B1EA
:1011D00003E0281EA5F10105F5D100BF15B104F00B
:1011E000040028B10326042004F071FB304670BDD2
:1011F000012004F062FB18B10126012004F067FB16
:1012000040F2FF5004F063FB3046F0E72DE9F04177
:1012100005460E464FF0000805E06248476B07F0B0
:10122000450000B100E0F8E700BF042004F045FBF2
:1012300028B1042004F04BFB0320BDE8F08101201D
:1012400004F03BFB20B1012004F041FB0120F4E756
:1012500054480069A84201D01020EEE740F2FF5048
:1012600004F035FB4F48446904F4604018B9200C81
:1012700030804046E1E704F4005008B11320DCE779
:1012800004F4804008B11020D7E704F4004008B10E
:101290000F20D2E74046D0E738B500240120009067
:1012A00004F07FFA08B9252038BD3C4800780428AE
:1012B00021D000203C49086002204860C02088609E
:1012C0000020C8604FF480600861084604F07EFA90
:1012D000FFF774FF04460CB12046E5E7314840694A
:1012E0002F4908602F48806948602E48C06988608F
:1012F0002C48006AC8602948007858B1274800780F
:10130000012807D025480078062803D02348007814
:10131000022816D10020244908600320486040209C
:1013200088600020C8604FF480600861084604F0BF
:101330004DFA69460320FFF769FF04460CB12046C9
:10134000B2E716480078032816D1BDF80000000463
:101350001549086003204860402088600020C8606C
:101360004FF480600861084604F030FAFFF726FF6A
:1013700004460CB1204697E708480078042834D08A
:10138000BDF8000009490860BDF8000000040649E6
:101390000860092048600BE074120020180000204B
:1013A0008412002000800140481200201C00002010
:1013B000C02088600020C8604FF480600861084643
:1013C00004F004FAFFF7FAFE04460CB120466BE77E
:1013D000F8484069F8490860F64880694860F5486F
:1013E000C0698860F348006AC86000205CE710B5F7
:1013F00005E0F048446B04F0450000B100E0F8E778
:1014000000BF042004F059FA20B1042004F05FFA70
:10141000032010BD40F2FF5004F059FA0020F8E715
:1014200070B500264FF4803505E0E248446B04F0C7
:10143000450000B103E0281EA5F10105F5D100BF6C
:1014400015B104F0040028B10326042004F03FFA8B
:10145000304670BD04F0400018B10026402004F072
:1014600036FA3046F5E770B500254FF4803404E0D5
:10147000802004F022FA00B103E0201EA4F1010450
:10148000F6D100BF0CB9032070BD40F2FF5004F04C
:101490001EFA2846F8E72DE9F04700270024002629
:1014A0000025A046A146B220C44908750020086066
:1014B00048608860C8600861084604F047F9032066
:1014C00004F064F9012004F05EF900BF12E000208E
:1014D000BB49086048608860C8604FF4806008615C
:1014E000084604F073F9FFF7BEFF044604B903E0B1
:1014F000781CC7B24A2FEADB00BF14B12046BDE812
:10150000F0874FF4D570AE4908600820486040204D
:1015100088600020C8604FF480600861084604F0CD
:1015200055F9FFF77DFF044624B90120A54908704D
:101530004FF080490020A2490860372048604020D1
:1015400088600020C8604FF480600861084604F09D
:101550003DF93720FFF722FB0446002C4BD134E045
:1015600000209749086037204860402088600020AC
:10157000C8604FF480600861084604F027F93720FE
:10158000FFF70CFB04460CB12046B8E78E4849EA49
:1015900000008B49086029204860402088600020B6
:1015A000C8604FF480600861084604F00FF9FFF747
:1015B0001EFF04460CB12046A1E77E484669012083
:1015C00080EAD67080F001086D1CB8F1000F03D1DD
:1015D0004FF6FF708542C3D34FF6FF70854202D3AA
:1015E0001B2420468BE706F08040061E32D00220E6
:1015F000744908702EE01CE07448714908600120AD
:101600004860402088600020C8604FF48060086116
:10161000084604F0DBF8FFF7EAFE04460CB120466A
:101620006DE764484669012080EAD67080F00108C1
:101630006D1CB8F1000F03D14FF6FF708542DBD36C
:101640004FF6FF70854202D31B24204657E7032044
:101650005C490870204652E77CB500250024012132
:10166000302002F069FD012140F2024002F057FDF6
:101670004FF4F850ADF8000018208DF80300032057
:101680008DF802006946524802F09AFA0420ADF83B
:10169000000018208DF8030003208DF80200694631
:1016A0004C4802F08DFA8020ADF8000048208DF8FB
:1016B000030003208DF802006946464802F080FAD4
:1016C00004F036F831208DF8040000208DF8050074
:1016D0008DF8060001208DF8070001A802F0A7F997
:1016E000FFF7D9FE044614B9FFF7D6FD04461CB92E
:1016F0003948FFF7D4FB044634B93749B1F85410E0
:101700000804FFF7B7FB04461CB90120FFF783FB71
:1017100004461CB12B480078032812D12E4890F8BB
:10172000560020B12C4890F85600012801D10A2516
:1017300000E004252846FFF729FA0020FFF71CFAED
:10174000044620467CBD10B5002004F01FF80020A0
:1017500010BD70B58CB006460C461546012102201E
:1017600002F0DDFC1D4804F0CDF800211B4804F018
:1017700096F910488030019002960395A0080490D5
:10178000002005908020069080000790800008903F
:10179000002009904FF400500A9000200B9001A9FE
:1017A0000E4804F051F900210C4804F078F90CB00F
:1017B00070BD000000800140741200203012002033
:1017C0004812002018000020000010800080FF80D8
:1017D000001001400014014098120020440402400F
:1017E0000146002002E04910421CD0B20129FAD182
:1017F00070472DE9F84F8146174698460A9C4FF0EE
:10180000000AD3464D464FF0FF36B9F1000F02D122
:101810002620BDE8F88F0020FD49C862FD48007809
:10182000022805D10402780A40EAC8574FEA68281E
:101830000020F94988604860401E08600120486126
:101840000020C8600861084603F0E9FFF0484069DD
:1018500000F0007008B10E20DBE7002C21DDB4F5AC
:10186000006F1EDC601E2040D8B92046FFF7B8FF8D
:101870000090EA4804601020E849486040208860F1
:101880000020C8604FF480600861084603F09EFFA6
:101890001020FFF783F98246BAF1000F03D05046BB
:1018A000B7E72620B5E700980001DB4988600846C5
:1018B00044604FF0FF300860012048610220C8609A
:1018C00000200861084603F0AAFFD44807601120F1
:1018D000D2494860402088600020C8604FF4806092
:1018E0000861084603F072FF1120FFF757F982469E
:1018F000BAF1000F01D050468BE7C94800780028A4
:101900005AD101F0CBFF18E04FF4004003F0D5FFAF
:1019100078B14FF0000B06E0BD488030006845F814
:101920002B000BF1010BBBF1080FF5D32035BD4E99
:1019300003E00EB904206CE7761EB548406B40F218
:101940002A6108400028DFD0082003F0B6FF20B14C
:10195000082003F0BCFF04205BE7022003F0ADFF8A
:1019600020B1022003F0B3FF022052E7202003F051
:10197000A4FF20B1202003F0AAFF062049E74FF47E
:10198000007003F09AFF28B14FF4007003F09FFF3E
:1019900007203EE703E003F064FF28602D1D4FF4AD
:1019A000001003F08AFF0028F5D101F079FF40F222
:1019B000FF5003F08CFF31E09948007801282DD1C9
:1019C000002221464846FFF7C4FE002096490870D1
:1019D00096490870964908708D48C06B40F22A31CC
:1019E00008438B49C863012003F0EDFE00E0761E3A
:1019F0009048006800F4005038B98D48007820B94C
:101A00008948007808B9002EF1D10EB9042000E70A
:101A10008548007810B1844890F800A05046F8E658
:101A20002DE9FF5F17469846DDE90E464FF00009A5
:101A3000CA464FF0FF35804900980860002074497D
:101A4000C86274480078022805D10402780A40EA86
:101A5000C8574FEA682800206F4988604860401ED8
:101A60000860012048610020C8600861084603F052
:101A7000D6FE6748406900F0007018B10E2004B02F
:101A8000BDE8F09F002C21DDB4F5006F1EDC601E68
:101A90002040D8B92046FFF7A3FE83465F48046084
:101AA00010205E494860402088600020C8604FF4E4
:101AB00080600861084603F089FE1020FFF76EF889
:101AC0008146B9F1000F03D04846D8E72620D6E773
:101AD000012E70D906FB04F0B0F1007F01D326205F
:101AE000CDE74FEA0B104C49886006FB04F04860D4
:101AF0004FF0FF300860012048610220C8600020DC
:101B00000861084603F08BFE4448076012204349F1
:101B10004860402088600020C8604FF48060086101
:101B2000084603F053FE1220FFF738F88146B9F15A
:101B3000000F01D04846A2E73948007800287DD13F
:101B400001F0ACFE1EE04FF4004003F0B6FEA8B179
:101B50004FF0000A08E02E488030006836490968D6
:101B600041F82A000AF1010ABAF1080FF3D332480A
:101B700000682030304908602A4D03E00DB9042088
:101B80007DE76D1E2248406B40F22A310840002854
:101B9000D9D0082003F091FE20B1082003F097FE71
:101BA00004206CE7022003F088FE28B1022003F035
:101BB0008EFE022063E7A5E0202003F07EFE20B128
:101BC000202003F084FE062059E74FF4007003F054
:101BD00074FE28B14FF4007003F079FE07204EE741
:101BE00009E003F03EFE14490968086012480068E5
:101BF000001D114908604FF4001003F05EFE00283C
:101C0000EFD14FF4807003F058FED0B3014816E0D6
:101C100000800140180000205C12002048120020C3
:101C200020000020FFFF7F00220000202100002074
:101C300023000020000402402400002029E0007856
:101C400038B1F9480078012803D0F7480078022815
:101C500018D10020F54908600C20486040208860B9
:101C60000020C8604FF480600861084603F0AEFDB4
:101C70000C20FEF793FF8146B9F1000F02D04846D1
:101C8000FDE6FFE701F00CFE40F2FF5003F01FFEFF
:101C900038E0E7480078012834D106FB04F100223F
:101CA0000098FFF756FD0020E24908700120E24944
:101CB00008700020E1490870E148C06B40F22A3109
:101CC0000843DF49C8630846C06A40F00800C8629C
:101CD00000E06D1EDB48006800F4005008B9002DDC
:101CE000F7D10DB90420CAE600BFD448007818B96E
:101CF000D04800780028F8D0CE48007810B1CD4800
:101D000090F800904846BAE61CB5044600200190C1
:101D10000090CD4800880004C44908600D20486048
:101D2000402088600020C8604FF480600861084649
:101D300003F04CFDC248406B009002E0C048406B8D
:101D40000090009800F045000028F7D0012003F033
:101D5000B4FD20B1012003F0BAFD01201CBD042018
:101D600003F0ABFD20B1042003F0B1FD0320F5E743
:101D7000B34800690D2801D01020EFE740F2FF5072
:101D800003F0A5FDAE48406901900198C0F34320DF
:101D900020700020E2E72DE9FF5F86B017469846E5
:101DA000149D002600200590049000248146039095
:101DB000824602900195DDF818B0DDF818B0BBF14D
:101DC000000F03D126200AB0BDE8F09F00209C49F7
:101DD000C8629E4988604860401E086001204861D2
:101DE0000020C8600861084603F019FD9448406966
:101DF00000F0007008B10E20E5E78B48007802285B
:101E000005D10502780A40EAC8574FEA6828002D34
:101E10001FDDB5F5006F1CDC681E2840C8B92846D8
:101E2000FFF7DEFC05908148056010207F4948607F
:101E3000402088600020C8604FF480600861084638
:101E400003F0C4FC1020FEF7A9FE06461EB1304682
:101E5000B9E72620B7E77C4800880004734908608A
:101E60000D204860402088600020C8604FF48060EA
:101E70000861084603F0AAFC0D20FEF78FFE064617
:101E80000EB130469FE76E48406903904FF0FF3433
:101E90001BE0641E6C4800880004644908600D2043
:101EA0004860402088600020C8604FF4806008616E
:101EB000084603F08BFC0D20FEF770FE06460EB1BF
:101EC000304680E75E4840690390039800F48070D4
:101ED00008B9002CDDD10CB9292074E753480760FC
:101EE000182052494860402088600020C8604FF4A4
:101EF00080600861084603F069FC1820FEF74EFE7A
:101F000006460EB130465EE700204B490870059842
:101F100000014E498860084645604FF0FF30086078
:101F2000012048610020C8600861084603F077FC82
:101F30004FF0FF343E480078002873D101F0AEFC2A
:101F400043E04FF4804003F0B8FCC8B30198A0EB25
:101F50000900202821D20198A0EB090000F003001D
:101F600020B90198A0EB0900800804E00198A0EBDB
:101F700009008008401C02904FF0000A09E0DBF8DD
:101F8000000003F072FC0AF1010A0BF1040B09F1E5
:101F9000040902988245F2D30FE04FF0000A05E0F1
:101FA0005BF82A0003F061FC0AF1010ABAF1080F9C
:101FB000F6D30BF1200B09F120096FF0404404E047
:101FC000FFE70CB90420FEE6641E1D48406B40F29A
:101FD0001A6108400028B4D0082003F06EFC20B13C
:101FE000082003F074FC0420EDE6022003F065FCF9
:101FF00020B1022003F06BFC0220E4E6102003F085
:102000005CFC20B1102003F062FC0520DBE64FF4FD
:10201000007003F052FCD8B14FF4007003F057FC8D
:102020000720D0E61BE00000180000204812002026
:10203000200000202200002021000020230000209A
:1020400000800140000402401C0000205C120020BF
:1020500001F026FC40F2FF50FC4988633EE0FC485A
:10206000007801283AD1102229460698FFF771FB23
:102070000020F8490870F8490870F8490870F348DA
:10208000C06B40F21A310843F049C8630846C06A81
:1020900040F00800C86200E0641EF148006800F4E7
:1020A000005008B9002CF7D11CB9FFF7D5FA04206D
:1020B00089E64FF0FF3400E0641EE848007820B95C
:1020C000E448007808B9002CF6D10CB904207AE66F
:1020D000E048007810B1DF48007874E640F2FF5025
:1020E00003F0F5FB04A8FFF70FFE064603E004A883
:1020F000FFF70AFE06463EB99DF810000728F6D005
:102100009DF810000628F2D030465CE62DE9FF5F0E
:1021100084B0DDE9124700260020039002900025DC
:1021200080468146019007FB04FBDDF810A0DDF836
:1021300010A0BAF1000F03D1262008B0BDE8F09F2F
:102140000020C249C862C74988604860401E0860D4
:10215000012048610020C8600861084603F05FFB69
:10216000BA48406900F0007008B10E20E5E7BE48AB
:102170000078022808D10402DDE90601400A40EA9D
:10218000C1504912CDE90601002C1FDDB4F5006FE6
:102190001CDC601E2040C8B92046FFF721FB0390DD
:1021A000B24804601020B149486040208860002097
:1021B000C8604FF480600861084603F007FB1020F8
:1021C000FEF7ECFC06461EB13046B6E72620B4E723
:1021D000012F6FD907FB04F0B0F1007F01D3262057
:1021E000ABE7A148007838B19F480078012803D0B8
:1021F0009D48007802282DD19D48008800049B4905
:10220000086037204860402088600020C8604FF494
:1022100080600861084603F0D9FA3720FEF7BEFC5B
:1022200006460EB1304688E79048076017208F4970
:102230004860402088600020C8604FF480600861DA
:10224000084603F0C3FA1720FEF7A8FC06460EB1B5
:10225000304672E78549069808601920486040209A
:1022600088600020C8604FF480600861084603F071
:10227000ADFA1920FEF792FC06460EB130465CE737
:10228000039800017749886007FB04F048604FF02D
:10229000FF300860012048610020C86008610846DE
:1022A00003F0BDFA6A480078002871D1451E01F09C
:1022B000F5FA40E0F3E06548406B00F48040A8B3D5
:1022C000ABEB080020281ED2ABEB080000F00300A7
:1022D00018B9ABEB0800800803E0ABEB08008008FE
:1022E000401C01904FF0000909E0DAF8000003F00B
:1022F000BCFA09F101090AF1040A08F1040801987D
:102300008145F2D30FE04FF0000905E05AF82900AB
:1023100003F0ABFA09F10109B9F1080FF6D30AF19C
:10232000200A08F120086FF0404504E0FFE70DB9EE
:10233000042002E76D1E4548406B40F21A31084008
:102340000028B8D0082003F0B8FA20B1082003F024
:10235000BEFA0420F1E6022003F0AFFA20B1022019
:1023600003F0B5FA0220E8E6102003F0A6FA20B147
:10237000102003F0ACFA0520DFE64FF4007003F004
:102380009CFA30B14FF4007003F0A1FA0720D4E6B4
:102390002CE04FF4807003F090FA00B332480078DC
:1023A00038B131480078012803D02F48007802283E
:1023B00015D100202D4908600C204860402088601D
:1023C0000020C8604FF480600861084603F0FEF901
:1023D0000C20FEF7E3FB06460EB13046ADE601F0F9
:1023E0005FFA40F2FF5003F072FA58E018480078A4
:1023F000012854D107FB04F110220498FFF7A9F932
:102400000020144908700120134908700020134966
:1024100008700E48C06B40F21A3108430B49C8637C
:102420000846C06A40F00800C8624FF0FF3500E07F
:102430006D1E0B48006800F4005008B9002DF7D15C
:10244000C5B9FFF709F9042077E6000000800140D4
:102450002000002022000020210000202300002076
:10246000000402405C1200201800002048120020E6
:102470001C0000204FF0FF3500E06D1EC2480078C0
:1024800020B9C248007808B9002DF6D10DB9042052
:1024900053E6BE48007810B1BC4800784DE640F2E3
:1024A000FF5003F014FA02A8FFF72EFC064603E0E3
:1024B00002A8FFF729FC06463EB99DF80800072848
:1024C000F6D09DF808000628F2D0304635E610B563
:1024D000AF48406B00F4807070B3AE4800780128BC
:1024E00014D10020AC4908600C204860402088606E
:1024F0000020C8604FF480600861084603F066F968
:102500000C20FEF74BFBA149087002E000209F4918
:1025100008709F48806B40F480709D49886308462E
:10252000C06B4CF23A3188439949C86301209649FF
:1025300008709648007810BD022003F0BEF968B11B
:10254000022003F0C4F99248C06B4CF23A31884340
:102550008F49C86302208D490870ECE7082003F01A
:10256000ACF968B1082003F0B2F98948C06B4CF2AD
:102570003A3188438649C863042084490870DAE701
:10258000202003F09AF968B1202003F0A0F98048D8
:10259000C06B4CF23A3188437D49C86306207B49C1
:1025A0000870C8E7102003F088F968B1102003F024
:1025B0008EF97748C06B4CF23A3188437449C8634E
:1025C000052072490870B6E74FF4007003F075F902
:1025D00070B14FF4007003F07AF96D48C06B4CF2A3
:1025E0003A3188436A49C863072068490870A2E7FE
:1025F0000020A0E710B5FFF76AFF10BD70B50446D4
:10260000002514B92625284670BD644800880004BA
:10261000614908600D204860402088600020C86043
:102620004FF480600861084603F0D0F80D20FEF7F3
:10263000B5FA05460DB12846E6E7554840692060E1
:102640002846E1E708B5002000906846FFF7D6FF6E
:1026500008B1FF2008BD0098C0F34320FAE72DE938
:10266000FE4F83460C4691460020029000262546E8
:102670002C46700240EAD5566D020BF00300F0B113
:102680004FF0000A18E04FF4007000904FEA4A2023
:10269000471946EBE0733A464148FFF7AAF8029023
:1026A0004FF400723E49584608F001FE0BF5007BDE
:1026B0000AF1010000F0FF0ACA45E4DB16E0B9F1B7
:1026C000010F09D14FF400702A4633460090584656
:1026D000FFF78FF8029009E04FF400702A46334666
:1026E000CDE900095846FFF79BF902900298BDE832
:1026F000FE8F2DE9FE4F81460C4692460020029047
:10270000002625462C46700240EAD5566D0209F097
:102710000300F0B14FF0000B18E04FF4007249468F
:102720001F4808F0C4FD4FF4007000904FEA4B20A2
:10273000471946EBE0733A461948FFF72CFB029025
:1027400009F500790BF1010000F0FF0BD345E4DB44
:1027500016E0BAF1010F09D14FF400702A46334652
:1027600000904846FFF717FB029009E04FF4007015
:102770002A463346CDE9000A4846FFF7C7FC0290D7
:102780000298BDE8FE8F00002300002022000020F8
:102790000080014021000020481200201C00002081
:1027A000F012002010B5FE4B19600023FD4CC4F858
:1027B000B431002214E00023FB4C236000F08003BE
:1027C0001BB10123241D236003E00023F64C241DCC
:1027D00023600123F44C23604306180E531CDAB225
:1027E000082AE8DB0123EE4C241D2360ED4CC4F8DD
:1027F000B03110BD30B500241CE004F1B001C8B206
:102800000021FFF7CFFF00210846FFF7CBFF002193
:102810001020FFF7C7FF002508E0E44901EBC501E0
:10282000085D0121FFF7BEFF681CC5B2802DF4DBF7
:10283000601CC4B2082CE0DB30BD00B500218D2047
:10284000FFF7B0FF00211420FFF7ACFF0021AF20FD
:10285000FFF7A8FF00BD00B500218D20FFF7A2FF04
:1028600000211020FFF79EFF0021AE20FFF79AFF06
:1028700000BD30B5002419E004F1B001C8B2002158
:10288000FFF790FF00210220FFF78CFF00211020AE
:10289000FFF788FF002505E001210020FFF782FFF8
:1028A000681CC5B2802DF7DB601CC4B2082CE3DBCA
:1028B00030BDF0B5144600267F2801DC3F2900DD3D
:1028C000F0BD0B46CF1701EB5777FF10C7F1070795
:1028D000FAB2CF1701EB5777FF10A1EBC707FDB294
:1028E000C5F107070123BB40DEB24CB1AF4B03EB90
:1028F000C0039B5C3343AD4F07EBC007BB5408E0FC
:10290000AA4B03EBC0039B5CB343A84F07EBC00784
:10291000BB5400BFD4E72DE9F84F06460C461746D6
:102920009846DDF82C900094002531E00A9810F8C4
:1029300005A04FF0000B25E00AF0800028B14A46C0
:1029400021463046FFF7B5FF0AE0B9F1000F01D18B
:10295000012000E00020024621463046FFF7A9FF93
:102960004FEA4A604FEA106A601CC4B20098201A0D
:10297000B84203D1009C701CC6B206E00BF1010006
:1029800000F0FF0BBBF1080FD6DB00BF681CC5B21F
:102990004545CBDBBDE8F88FF0B504460F4615463C
:1029A0001E4606E0324621462846FFF782FF601C9D
:1029B000C4B2781C8442F5DBF0BDF0B504460F4686
:1029C00015461E4606E0324629462046FFF771FFAF
:1029D000601CC4B2781C8442F5DBF0BD2DE9FF4FCA
:1029E00085B080460F4691464FF0000AD346A9EBCA
:1029F00008050898C61B002D02DD012003900AE09F
:102A000035B939464046129B089AFFF7C5FF02E0E8
:102A10004FF0FF300390002E02DD012002900AE00B
:102A200036B93A4649464046129BFFF7C6FF02E0D8
:102A30004FF0FF300290284608F071FE21F000416F
:102A4000CDE9000108F03CFE0546304608F067FE7F
:102A500021F00041CDE9000108F032FE0646B54202
:102A600001DD2C4600E034460020049018E0394691
:102A70004046129AFFF71DFFAA44B344A24505DD64
:102A8000AAEB040A0398404400F0FF08A34504DDC4
:102A9000ABEB040B02983844C7B20498401C049076
:102AA000611C04988842E2DD09B0BDE8F08F2DE991
:102AB000F04306460F46904645464FEA4800C0F1AF
:102AC000030900244AE07A19D1B23219D0B20122A6
:102AD000FFF7EFFE7A1BD1B23219D0B20122FFF715
:102AE000E8FE7A19D1B2321BD0B20122FFF7E1FE23
:102AF0007A1BD1B2321BD0B20122FFF7DAFE3A19AB
:102B0000D1B27219D0B20122FFF7D3FE3A1BD1B273
:102B10007219D0B20122FFF7CCFE3A19D1B2721B62
:102B2000D0B20122FFF7C5FE3A1BD1B2721BD0B260
:102B30000122FFF7BEFEB9F1000F05DA04EB4400F5
:102B40002044801D814408E0601B611B01EB4000B4
:102B5000611B08440A3081446D1E641CAC42B2DD26
:102B6000BDE8F0832DE9F04706460F4690469946AA
:102B7000DDF820A034460CE03D4606E052462946EA
:102B80002046FFF796FE681CC5B24D45F6DD601C79
:102B9000C4B24445F0DDFFF72DFEBDE8F08700002C
:102BA000B08123420080234280012242F0140020A1
:102BB0002DE9F84F80460F4616461C46BA46204679
:102BC000E31704EB5373DB1021464FEAE47C04EB7C
:102BD0005C7C4FEAEC0CA4EBCC0CBCF1000F02D0F7
:102BE0004FF0010C01E04FF0000C6344224604EB6F
:102BF000D27C4FEA6C0C03FB0CF303F0FF0BA6F145
:102C00002000C6B200254EE00C2C07D106EB460092
:102C1000FE4901EB8000405D009013E0102C05D1CF
:102C2000FB4800EB0610405D00900BE0182C07D12C
:102C300006EBC600F74901EB8000405D009001E023
:102C4000BDE8F88F4FF0000927E0009800F0800001
:102C500028B1394640460A9AFFF72BFE09E00A9848
:102C600008B9012000E00020024639464046FFF73F
:102C700020FE00984006000E0090781CC7B2A7EB1B
:102C80000A00A04205D1574608F1010000F0FF08F4
:102C900006E009F1010000F0FF09B9F1080FD4DBEB
:102CA00000BF681CC5B25D45AEDB00BFC8E710B50C
:102CB0000246012000E050430B1EA1F10104E1B2E5
:102CC000F9D110BD2DE9F04306460F469146002488
:102CD00025E04FF0800800251DE009EB4900CE49B2
:102CE00001EB4000005D00EA080048B17A19D1B25A
:102CF0003219D0B20122FFF7DCFD4FEA680808E084
:102D00007A19D1B23219D0B20022FFF7D2FD4FEAC0
:102D10006808681CC5B2082DDFDB601CC4B2062C35
:102D2000D7DBBDE8F0832DE9FF4F81B00746914620
:102D30001E460E9D4FF0000A002439E0301B401E55
:102D4000C1B20A20FFF7B3FFB9FBF0F00A21B0FBD4
:102D5000F1F201FB1208BAF1000F16D1701EA04269
:102D600013DDB8F1000F0ED10120AB4605EBDB718E
:102D7000491001FB04710090C8B22B462022029931
:102D8000FFF716FF12E04FF0010A0120AB4605EBFA
:102D9000DB71491001FB04710090C8B208F13001E9
:102DA000CAB22B460299FFF703FF00BF601CC4B2F2
:102DB000B442C3DB05B0BDE8F08FF8B506460F4658
:102DC00015461C4621E004EBD4714910C1F1800185
:102DD000B14202DA00263819C7B2C4F14000B84245
:102DE00004DA002006460746FFF743FD0120009065
:102DF0002A78234639463046FFF7DAFE204604EBB0
:102E0000D07106EB6101CEB26D1C28787E2802DC01
:102E100028782028D7DAFFF7EDFCF8BD30B5044656
:102E20000D4605F1B001C8B20021FFF7BBFC10212F
:102E300041EA14100021FFF7B5FC04F00F0141F046
:102E400001000021FFF7AEFC30BD08B501200523CD
:102E50006F22022100906E20FFF784FE01200523DF
:102E60007222022100907120FFF77CFE01200523D1
:102E70007522022100907420FFF774FE01200523C3
:102E80007822022100907720FFF76CFE01200523B5
:102E90007B22022100907A20FFF764FE01200623A6
:102EA0007E22014600907D20FFF75CFE0120052375
:102EB0006C22022100906920FFF754FE01200723B5
:102EC0007F22194600906C20FFF788FD0120002327
:102ED0007F22194600906C20FFF780FD0120072318
:102EE0007F22002100901046FFF778FD0120072384
:102EF0006C22002100901046FFF770FDFFF77AFC6E
:102F000008BD08B50121902001F016F90320ADF8A5
:102F1000000010208DF8030003208DF802006946A0
:102F20003E4800F04DFE03213C4800F0F6FE4FF411
:102F30006050ADF800006946394800F041FE4FF49A
:102F40006051374800F0E9FE0120364908603649F3
:102F5000C1F8B001334908390860642000F06FFC03
:102F600000203149C1F8AC01642000F068FC012068
:102F70002C49083908600021AE20FFF713FC00211E
:102F8000D520FFF70FFC00218020FFF70BFC00216C
:102F9000A820FFF707FC00213F20FFF703FC0021DA
:102FA000D320FFF7FFFB00210846FFF7FBFB0021C2
:102FB0004020FFF7F7FB00218D20FFF7F3FB0021F6
:102FC0001420FFF7EFFB00212020FFF7EBFB00218F
:102FD0000220FFF7E7FB0021A120FFF7E3FB002120
:102FE000C020FFF7DFFB0021DA20FFF7DBFB002129
:102FF0001220FFF7D7FB00218120FFF7D3FB002130
:103000006F20FFF7CFFB0021D9200FE028BC00087C
:103010009CC000088CC60008ECBB000800100140F2
:10302000001C0140B481234200802342FFF7BAFB19
:103030000021F120FFF7B6FB0021DB20FFF7B2FBF8
:1030400000213020FFF7AEFB0021A420FFF7AAFBF0
:103050000021A620FFF7A6FB0021AF20FFF7A2FB6F
:10306000FFF707FC00210846FFF7D8FE08BD000067
:1030700010B504462046FDF743FB10BD10B52020D7
:10308000FDF72CFB10BD10B51020FDF727FB10BD80
:1030900008B50121D02001F04FF84FF40050ADF8F1
:1030A000000048208DF8030003208DF802006946D7
:1030B000FE4800F085FD4020ADF8000010208DF89E
:1030C00003006946FA4800F07BFDC020ADF800001F
:1030D00010208DF803006946F64800F071FDFDF7F9
:1030E000BCFA08BD70B505460C4600BFF248006842
:1030F0000028FBD0FFF7C2FF0120F0490860002044
:10310000EF49C1F89C010220FFF7B2FF2846FFF704
:10311000AFFF2012FFF7ACFFE0B2FFF7A9FF0120DD
:10312000E649091D0860FFF7AEFF70BD70B50546A2
:10313000002400BFE04800680028FBD0FFF79EFF96
:103140000120DE4908600020DD49C1F89C01032010
:10315000FFF78EFF2846FFF78BFFFF20FFF788FF62
:1031600004464FF6FF7000EA0424FF20FFF780FFBB
:10317000204484B20120D149091D0860FFF783FF74
:10318000204670BD10B5002400BFCB480068002861
:10319000FBD0FF20FFF76CFF00240DE040F6040198
:1031A0000020FFF79FFF022000F049FB2046611C32
:1031B000CCB2642800DD05E00020FFF7B7FFB0F5D2
:1031C000006FEBD100BF00BFBB4800680028FBD0F8
:1031D00000240AE04FF418410320FFF783FF204644
:1031E000611CCCB2642800DD05E00320FFF79EFFE0
:1031F000B0F5184FEED100BF142000F020FB10BD39
:1032000010B500240020AF490860142000F017FB1F
:103210000120AB49C1F89801A849091D0860AA49D5
:10322000C1F8980104E0601CC4B2322000F0E3FA57
:10323000A148006808B9C82CF5DB142000F0FFFA9B
:10324000C82C01DB012010BD0020FCE710B5FFF702
:10325000D7FF42F220010B20FFF744FF4FF4026139
:103260000020FFF73FFF00BF934800680028FBD015
:10327000FFF704FF0020914908605320FFF7F8FE94
:10328000EF20FFF7F5FE6E20FFF7F2FE2420FFF798
:10329000EFFE0020FFF7ECFE0020FFF7E9FE002024
:1032A000FFF7E6FE0020FFF7E3FE642000F0C7FA18
:1032B00001208349C1F89801002080490860452019
:1032C000FFF7D6FE7820FFF7D3FE6920FFF7D0FE88
:1032D0007420FFF7CDFE0020FFF7CAFE0020FFF7A5
:1032E000C7FE0020FFF7C4FE0020FFF7C1FE6420E8
:1032F00000F0A5FA01207149086000200860532001
:10330000FFF7B6FEEF20FFF7B3FE6E20FFF7B0FE2B
:103310004420FFF7ADFE0020FFF7AAFE0020FFF7D4
:10332000A7FE0020FFF7A4FE0020FFF7A1FE642007
:1033300000F085FA012061490860002008604520FE
:10334000FFF796FE7820FFF793FE6920FFF790FEC7
:103350007420FFF78DFE0020FFF78AFE0020FFF7A4
:1033600087FE0020FFF784FE0020FFF781FE642027
:1033700000F065FA01205249C1F8980110BD10B55E
:10338000FFF73EFF4FF402610020FFF7ABFE00BFE6
:10339000494800680028FBD0FFF770FE002047492D
:1033A00008604D20FFF764FEEA20FFF761FE6D2004
:1033B000FFF75EFE5420FFF75BFE0020FFF758FE8C
:1033C0000020FFF755FE0020FFF752FE0020FFF718
:1033D0004FFE962000F033FA01203949C1F89801D8
:1033E0000820FFF7A3FE10BD10B50446FFF74BFE03
:1033F0000020324908602046FFF73AFE012030499C
:10340000C1F8980110BD70B5044621460720FFF7AA
:1034100069FE0620FFF78AFE0546284670BD70B596
:1034200004460D4621460720FFF75CFE00BF2248F8
:1034300000680028FBD029460620FFF753FE70BD28
:1034400010B50446214641F60460FFF7E8FF10BDC1
:1034500070B50820FFF76AFE05460920FFF766FEF3
:10346000044644F66771601A8C421DD00DDCA4F549
:103470008040A0F5A270A8B1102812D0B0F53F6F1F
:1034800011D0B0F5416F38D10AE0A0F2E67060B11A
:10349000A0F6FF60D8B1A0F58050193868BB00BF16
:1034A00000BF00BF00BF00BF00BF0FE00010014021
:1034B00000180140001C014034012242988123423F
:1034C00000802342980123420000234200BF68008D
:1034D0001921B0FBF1F40A20B4FBF0F100FB11401C
:1034E000052805D90A20B4FBF0F0401C80B270BD5D
:1034F0000A20B4FBF0F080B2F9E7E40804F003041A
:10350000032C01D1012400E00024AA4800EB441060
:10351000290B30F81100EAE710B541F60560FFF716
:1035200072FF10BD10B541F60660FFF76CFF10BDCD
:1035300070B50546A048006878B100209F49086032
:10354000002404E0285DFFF793FD601CC4B2202C2A
:10355000F8DB01209949086001E0012070BD0020DE
:10356000FCE770B588B0002604E000200DF80600E6
:10357000701CC6B2202EF8DB0020FFF7D7FD0446F2
:1035800044F0080444F0040421460020FFF7AAFD9B
:1035900000250EE06846FFF7CBFF50B905F120008B
:1035A00085B20020FFF7C2FD044604F0080000B910
:1035B00002E0B5F5006FEDDB00BFB5F5006F19DA7D
:1035C000FFF7B0FFC4B2002604E0E0B20DF8060039
:1035D000701CC6B2202EF8DB002506E06846FFF717
:1035E000A7FF10B905F1200085B240F6040085421E
:1035F000F4DB01E0FFF7C6FD0820FFF797FD044666
:103600000920FFF793FD204484B21CB1FFF7F8FDB9
:10361000FFF7B8FD08B070BD10B500210420FFF71A
:1036200061FD00210420FFF75DFD10BD10B50024F1
:103630000420FFF77BFD0446204610BD2DE9F0472E
:103640000446884600252DE02846691C8DB234F8D2
:1036500010702846691C8DB234F8106006F40040E2
:1036600088B1C6F30E062846691C8DB234F8109056
:1036700003E0F8B24946FFF735FD301EA6F101011F
:103680008EB20FD0F5E708E02846691C8DB234F8F9
:103690001090F8B24946FFF725FD301EA6F1010152
:1036A0008EB2F1D14545CFDBBDE8F08770B5054658
:1036B0000024C5F1FE0084B24FF6FF7000EA042436
:1036C000C5F1FE00204484B221460B20FFF70AFD1D
:1036D00070BD2DE9F04706460F4690461D46002472
:1036E000A14605B90AE0082D04DDA5F108004FFA4E
:1036F00080F903E0A5F109004FFA80F909F00F0401
:103700004FF6FF7000EA041408F00F0004444FF66F
:10371000FF7000EA041407F00F0004444FF6FF7036
:1037200000EA041406F00F00204484B2214602206F
:10373000FFF7D8FCBDE8F08770B505460020FFF71D
:10374000F5FC044605F0010010B144F0100401E05E
:1037500024F0200405F0020010B144F0800401E0E0
:1037600024F0800421460020FFF7BCFC70BD10B59A
:10377000044610214CF21700FFF751FE21014CF2D4
:103780001900FFF74CFE10BD10B50D490878FFF782
:103790008DFF0B4C2379E278A1786078FFF799FFD1
:1037A00021464879FFF7C8FF21468879FFF7DFFFF8
:1037B00010BD0000E8D30008340122429881234262
:1037C0002800002010B56FF0040000F07AF92E48B0
:1037D00000682E49B0FBF1F02D49087008460078CA
:1037E00000EB4001C1EBC0104FF6FF7101EAC000D1
:1037F0002849088010BD0146254A12784A434FF0F7
:10380000E0235A6100229A611A46126942F00102CD
:103810001A6100BF4FF0E022106900F001021AB1F6
:1038200000F48032002AF5D04FF0E022126922F035
:1038300001024FF0E0231A6100229A6170470146AD
:10384000144A12884A434FF0E0235A6100229A61D9
:103850001A46126942F001021A6100BF4FF0E022DD
:10386000106900F001021AB100F48032002AF5D08C
:103870004FF0E022126922F001024FF0E0231A61BA
:1038800000229A61704700000000002000127A00B8
:10389000300000203200002030BF704772B6704701
:1038A00062B67047014600BF704700BF494A1288A0
:1038B00002F04002002AF9D0C2B2464B1B1D1A800A
:1038C000704710B586B00446012144F2040000F0B0
:1038D00033FC4FF40070ADF8140003208DF816008F
:1038E00018208DF8170005A93B4800F069F94FF43E
:1038F0008060ADF8140004208DF8170005A9364843
:1039000000F05EF925208DF8000003208DF80100FD
:103910008DF8020001208DF80300684600F087F85A
:1039200001940020ADF80800ADF80A00ADF80C00D5
:10393000ADF810000C20ADF80E0001A9254800F0EC
:1039400028FE012240F22551224800F0BAFE012152
:10395000204800F0AAFE06B010BD10B540F2255177
:103960001C4800F093FF10B31A4800F00FFFC4B2D8
:103970001A48008800F40040C8B91848008800F4CC
:10398000804060B10A2C03D000201449088020E058
:103990001248008840F400401049088019E00D2CBE
:1039A00006D10E48008840F480400C49088010E0A1
:1039B0000A480088C0F30D0009490C5407480088E4
:1039C000401C0649088008460088C72801DD002001
:1039D000088010BD00380140000801403800002078
:1039E000F01800200948804709480047FEE7FEE735
:1039F000FEE7FEE7FEE7FEE7FEE7FEE7FEE7FEE79F
:103A000004480549054A064B70470000C7030008F3
:103A10003101000848C4002048CA002048C60020E0
:103A200048C6002031490143314A1160704770B5E2
:103A3000002100230F22C47804B32D4C246804F421
:103A4000E064C4F5E064210AC1F10403CA4044788B
:103A500004FA03F18478144021430901254C0678C7
:103A6000A155047804F01F050124AC4005786D11C0
:103A7000AD0005F1E025C5F8004109E0047804F047
:103A80001F050124AC401C4D0678761145F82640F0
:103A900070BD1A4A0A400243154B1B1F1A6070473B
:103AA00039B1134A121D12680243114B1B1D1A60D3
:103AB00006E00F4A121D126882430D4B1B1D1A604F
:103AC0007047042808D14FF0E021096941F0040152
:103AD0004FF0E022116107E04FF0E021096921F089
:103AE00004014FF0E0221161704700000000FA0568
:103AF0000CED00E000E400E080E100E080FFFF1F4B
:103B000010B50446CC48844208D10121042000F0BD
:103B10002DFB0021042000F029FB46E0C748844229
:103B200008D10121082000F021FB0021082000F02D
:103B30001DFB3AE0C248844208D10121102000F068
:103B400015FB0021102000F011FB2EE0BD4884423F
:103B500008D10121202000F009FB0021202000F0E5
:103B600005FB22E0B848844208D10121402000F042
:103B7000FDFA0021402000F0F9FA16E0B348844233
:103B800008D10121802000F0F1FA0021802000F00E
:103B9000EDFA0AE0AE48844207D10121801500F019
:103BA000E5FA0021A01500F0E1FA10BD10B50121E1
:103BB000084600F0DBFA0021012000F0D7FA10BD22
:103BC0002DE9F041024600250026002000230024B4
:103BD000002791F803C00CF00F0591F803C00CF01A
:103BE000100CBCF1000F03D091F802C04CEA05059F
:103BF00091F800C0BCF1000F31D0146800202BE018
:103C00004FF0010C0CFA00F3B1F800C00CEA030607
:103C10009E4220D183004FF00F0C0CFA03F7BC43F7
:103C200005FA03FC4CEA040491F803C0BCF1280F28
:103C300006D14FF0010C0CFA00FCC2F814C00AE0E7
:103C400091F803C0BCF1480F05D14FF0010C0CFAFC
:103C500000FCC2F810C0401C0828D1D31460B1F891
:103C600000C0BCF1FF0F34DD546800202EE000F1ED
:103C7000080C4FF0010808FA0CF3B1F800C00CEA88
:103C800003069E4221D183004FF00F0C0CFA03F77C
:103C9000BC4305FA03FC4CEA040491F803C0BCF1F0
:103CA000280F05D100F1080C08FA0CF8C2F81480AE
:103CB00091F803C0BCF1480F07D100F1080C4FF098
:103CC000010808FA0CF8C2F81080401C0828CED36E
:103CD0005460BDE8F0814FF6FF71018002218170D0
:103CE0000421C17070470246002093680B400BB15D
:103CF000012000E0002070470146886880B27047CC
:103D000002460020D3680B400BB1012000E00020E8
:103D100070470146C86880B27047016170474161D1
:103D200070470AB1016100E041617047C1607047AE
:103D30004FF480320A4382618161826182698269C3
:103D4000704702460020434B18684FF680731840B6
:103D500040EA021008433F4B186070473E49C86173
:103D60007047F0B50A46002300240021002500F02A
:103D70000046B6F1004F02D1364EF16901E0354EF2
:103D80007168C0F3034583B200F44016B6F5401FD6
:103D900008D121F070612F4E766826F070662D4FA5
:103DA0007E6012E000F48016B6F5801F06D103266F
:103DB00006FA05F4A14341F0706106E0460D3601B4
:103DC00003FA06F6B14341F0706122B1460D3601A7
:103DD00003FA06F6314300F00046B6F1004F02D177
:103DE0001C4EF16101E01B4E7160F0BD30B5002248
:103DF0008B071C0F0F2303FA04F2164B08338C10A9
:103E000053F824309343134C08348D1044F8253074
:103E100023468C1053F824308C07240F00FA04F446
:103E200023430C4C08348D1044F8253030BD0A492A
:103E3000DC3108607047000000080140000C0140C0
:103E4000001001400014014000180140001C014016
:103E5000002001400000014000002042DF480068CF
:103E600040F00100DD49086008464068DC49084030
:103E7000DA49486008460068DA490840D7490860CE
:103E80000846006820F4802008600846406820F456
:103E9000FE0048604FF41F0088607047CF490968F2
:103EA00021F48031CD4A11601146096821F4802146
:103EB0001160B0F5803F03D0B0F5802F0ED106E041
:103EC000C649096841F48031C44A116007E0C3491A
:103ED000096841F4A021C14A116000E000BF00BFA1
:103EE000704710B501460022002300204A11012A24
:103EF00002D1BA4C236806E0022A02D1B74C236AE9
:103F000001E0B64C636A01F01F02012494401C409A
:103F10000CB1012000E0002010BD38B50020009059
:103F20000024002500BF3120FFF7DBFF0546009885
:103F3000401C00900098B0F5A06F01D0002DF2D089
:103F40003120FFF7CEFF08B1012400E00024204615
:103F500038BD01460020A14A106820F0F80040EA70
:103F6000C10010607047A0490860704702460020F9
:103F70009A4B586820F47C1042EA01031843974B8F
:103F80005860704798490866704701460020934A78
:103F9000506820F003000843506070478F48406825
:103FA00000F00C007047014600208C4A506820F059
:103FB000F00008435060704701460020874A50686F
:103FC00020F4E06008435060704701460020834AB7
:103FD000506820F4605040EAC1005060704729B139
:103FE0007E4A527A02437D4B5A7204E07B4A527AEF
:103FF00082437A4B5A7270477B49D83108607047C8
:1040000001460020754A506820F440400843506043
:1040100070470021714A20321170704A82F82010D6
:10402000012802D004280AD104E001216B4A203281
:10403000117005E00521694A2032117000E000BFCF
:1040400000BF70476949086070476449096A0143C5
:10405000624A11627047654944390860704730B55B
:1040600000210022002400235C4D6D6805F00C0146
:1040700021B1042905D0082923D105E05C4D056054
:1040800022E05B4D05601FE0544D6D6805F4701231
:10409000524D6D6805F48034022505EB92421CB93F
:1040A000544D554305600BE04C4D6D6805F40035EB
:1040B0001DB1504D5543056002E04D4D554305601F
:1040C00002E04B4D056000BF00BF444D6D6805F038
:1040D000F0010909484D6B5C0568DD4045603F4DC6
:1040E0006D6805F4E061090A434D6B5C4568DD408D
:1040F00085603A4D6D6805F46051C90A3E4D6B5CB0
:104100004568DD40C560354D6D6805F44041890B5B
:104110003A4D6B5CC568B5FBF3F5056130BD29B15F
:104120002E4A526902432D4B5A6104E02B4A5269D0
:1041300082432A4B5A61704729B1284A9269024347
:10414000264B9A6104E0254A92698243234B9A6187
:10415000704729B1214AD2690243204BDA6104E059
:104160001E4AD26982431D4BDA61704729B11B4A4E
:10417000D2680243194BDA6004E0184AD2688243DD
:10418000164BDA60704729B1144A12690243134B87
:104190001A6104E0114A12698243104B1A61704798
:1041A00012494039086070470F49C86470470B498D
:1041B000C87170470948406A40F0807007494862FA
:1041C000704701460020054A92680A400AB1012062
:1041D00000E00020704701498872704700100240DB
:1041E0000000FFF8FFFFF6FE00004242800442425A
:1041F00000127A0000093D003A0000204A00002029
:1042000010B50446BE48844208D101218014FFF74E
:10421000ADFF0021A014FFF7A9FF16E0B9488442C2
:1042200008D101210014FFF7AEFF00212014FFF791
:10423000AAFF0AE0B448844207D10121C013FFF766
:10424000A2FF0021E013FFF79EFF10BD10B5002272
:10425000028802F441520B884C8823438C88234304
:10426000CC8823430C8923434C8923438C892343E3
:10427000CC8923431A430280838B4FF2FF7423407F
:1042800083830B8A038210BD2DE9F04F85B005466C
:104290000C464FF0000902274FF000084FF0010BC9
:1042A0000026B246A88B4FF240010840A8830220A6
:1042B0002884B5F81C90A068022801D100BF38E01E
:1042C000A08810B94FF0010B01E04FF0020B8D48B0
:1042D000854200D100E000BF6846FFF7C0FEDDF870
:1042E00000A0E088B0F5007F0AD14FEA1A2000EB69
:1042F00080004000A168B0FBF1F0401D86B20BE0E9
:104300004FEA4B10BAFBF0F000EB80004000A168D0
:10431000B0FBF1F0401D86B20A20B6FBF0F606F0C5
:104320000108A6EB0800C0F34F074FF6FF7000EA44
:104330000828022F01DBFF2F02DD02274FF00008C3
:10434000E08840EA080038432884A088A18908430F
:10435000618808432188084340F4006040EA090965
:10436000A5F81C9005B0BDE8F08F002101804180C8
:104370008180C180018141818181C18107210182C8
:1043800070470021018041808180C18002218160CD
:1043900000218181704721B1028842F040020280F1
:1043A00004E002884FF6BF731A400280704721B1C3
:1043B000828B42F48062828304E0828B4FF6FF336B
:1043C0001A408283704730B5002400230C11012568
:1043D000A540ABB21AB185881D43858002E085886F
:1043E0009D43858030BD1AB183880B43838002E0F2
:1043F00083888B4383807047818170470146888919
:1044000070474FF6FF62914204D0028842F48072F6
:10441000028004E002884FF6FF631A400280704772
:1044200021B1828842F00402828004E082884FF643
:10443000FB731A408280704702884FF2FF731A4064
:10444000028002880A4302807047018841F480514B
:104450000180704721B1028842F40052028004E0DA
:1044600002884DF6FF731A40028070470246002012
:10447000012901D0108B00E0908A70470146088A1C
:104480007047B1F5804F04D1028842F48042028027
:1044900004E002884BF6FF731A4002807047024620
:1044A000002013890B400BB1012000E00020704771
:1044B000CA4302817047F0B5024600200024002361
:1044C000002501F00F070126BE40B4B20B110126F2
:1044D0009E40B3B2968806EA03051689264016B1B7
:1044E0000DB1012000E00020F0BD10B5002201F068
:1044F0000F040123A3409AB2D343038110BD0000EF
:104500000030014000380040003C004010B5044637
:10451000FB48844209D101218803FFF727FE0021CF
:104520004FF48040FFF722FE32E0F648844209D182
:1045300001214804FFF727FE00214FF40030FFF768
:1045400022FE25E0F048844209D101218804FFF7CA
:104550001AFE00214FF48020FFF715FE18E0EB480B
:10456000844209D10121C804FFF70DFE00214FF458
:104570000020FFF708FE0BE0E548844208D1012146
:104580000805FFF700FE00214FF48010FFF7FBFD48
:1045900010BD2DE9F04786B005460E460024A24620
:1045A00000BFA1460027B08900B100BF2F462C8A6A
:1045B0004CF6FF700440F08804432C82AC894EF620
:1045C000F3100440B08831890843718908430443DB
:1045D000AC81AC8A4FF6FF400440B0890443AC8202
:1045E00001A8FFF73CFDC648874202D1DDF810A0C4
:1045F00001E0DDF80CA0A88900F4004040B10AEB0E
:10460000CA0000EB0A1031684900B0FBF1F807E07E
:104610000AEBCA0000EB0A1031688900B0FBF1F820
:104620006420B8FBF0F004012009642101FB10892B
:10463000A88900F4004040B1322000EBC900B0FB73
:10464000F1F000F00700044308E0322000EB09100D
:104650006421B0FBF1F000F00F0004432C8106B0A0
:10466000BDE8F0874FF41651016000218180C180C0
:1046700001810C21418100218181704710B50246E2
:104680000020108A4FF2FF0318400B884C88234308
:104690008C882343CC8823431843108210BD00210B
:1046A000018041808180C180704721B1828942F4BC
:1046B0000052828104E082894DF6FF731A408281A4
:1046C0007047F0B50346002400260025002040F680
:1046D0006A17B94200D100BF1846C1F3421401F075
:1046E0001F06012707FA06F5012C01D10C3004E062
:1046F000022C01D1103000E014301AB107682F43AA
:10470000076002E00768AF430760F0BD1AB1838A13
:104710000B43838202E0838A8B4383827047028A41
:104720004FF6F0731A400282028A0A4302827047EF
:1047300082894FF2FF731A40828182890A43828103
:10474000704721B1828942F00202828104E08289AD
:104750004FF6FD731A4082817047028A4FF6DF736D
:104760001A400282028A0A430282704721B1028AF9
:1047700042F48042028204E0028A4BF6FF731A4040
:1047800002827047C1F30802828070470146888820
:10479000C0F308007047818941F0010181817047B1
:1047A000028BD2B20283028B42EA0122028370475B
:1047B000028B02F47F420283028B0A43028370471A
:1047C00021B1828A42F02002828204E0828A4FF67E
:1047D000DF731A408282704721B1828A42F0100250
:1047E000828204E0828A4FF6EF731A408282704719
:1047F00021B1828A42F00802828204E0828A4FF666
:10480000F7731A408282704721B1828942F40042D4
:10481000828103E08289C2F30E028281704721B156
:10482000828A42F40062828204E0828A4FF2FF733D
:104830001A4082827047828A4FF6FB731A40828246
:10484000828A0A438282704721B1828A42F0020240
:10485000828204E0828A4FF6FD731A40828270479A
:1048600002460020B1F5007F00D100BF13880B4045
:104870000BB1012000E00020704701F40072B2F596
:10488000007F00D100BFCA430280704770B5024666
:10489000002400230025002040F66A16B14200D112
:1048A00000BFC1F3421501F01F03012606FA03F30E
:1048B000012D02D19689334006E0022D02D1168ADD
:1048C000334001E0968A33400C12012606FA04F4C4
:1048D0001688344013B10CB1012000E0002070BDF7
:1048E00010B50022002340F66A14A14200D100BF97
:1048F0000A1201249440A3B2DC43048010BD0000DE
:10490000003801400044004000480040004C004096
:104910000050004010B50446FE48844208D10121F1
:10492000C014FFF723FC0021E014FFF71FFCC4E0D4
:10493000B4F1804F08D101210846FFF724FC002183
:104940000120FFF720FCB8E0F348844208D10121A0
:104950000220FFF718FC00210220FFF714FCACE056
:10496000EE48844208D101210420FFF70CFC00210D
:104970000420FFF708FCA0E0E948844208D10121A7
:104980000820FFF700FC00210820FFF7FCFB94E063
:10499000E448844208D101211020FFF7F4FB0021F4
:1049A0001020FFF7F0FB88E0DF48844208D10121A6
:1049B0002020FFF7E8FB00212020FFF7E4FB7CE04C
:1049C000DA48844208D101214014FFF7CFFB0021CF
:1049D0006014FFF7CBFB70E0D548844209D1012178
:1049E000C804FFF7C3FB00214FF40020FFF7BEFB14
:1049F00063E0D048844209D101210805FFF7B6FBE6
:104A000000214FF48010FFF7B1FB56E0CA48844202
:104A100009D101214805FFF7A9FB00214FF400103F
:104A2000FFF7A4FB49E0C548844208D1012140209A
:104A3000FFF7A9FB00214020FFF7A5FB3DE0C048A0
:104A4000844208D101218020FFF79DFB00218020B6
:104A5000FFF799FB31E0BB48844208D10121801562
:104A6000FFF791FB0021A015FFF78DFB25E0B6486D
:104A7000844209D101210804FFF778FB00214FF49B
:104A80008030FFF773FB18E0B048844209D1012160
:104A90004804FFF76BFB00214FF40030FFF766FB83
:104AA0000BE0AB48844208D101218804FFF75EFB8C
:104AB00000214FF48020FFF759FB10BD002202882F
:104AC000944B98420ED0994B98420BD0B0F1804F46
:104AD00008D0914B984205D0904B984202D0904B11
:104AE000984204D14FF68F731A404B881A438D4B6E
:104AF000984207D08C4B984204D04FF6FF431A409F
:104B0000CB881A4302808B8883850B880385814B71
:104B100098420BD0854B984208D08B4B984205D0D9
:104B20008A4B984202D08A4B984201D10B7A038675
:104B300001238382704770B5002400220023058C76
:104B40004FF6FE7635400584028C8388048B4FF641
:104B50008F752C40B51E2C400D882C43751E2A40A5
:104B60000D892A434D882A436A4DA8420BD06F4DC8
:104B7000A84208D0744DA84205D0744DA84202D076
:104B8000734DA84213D14FF6F7752A404D892A4339
:104B90004FF6FB752A408D882A434FF6FF652B4060
:104BA0004FF6FF552B408D892B43CD892B438380B6
:104BB0000483CD888586028470BD70B500240022F0
:104BC0000023058C4FF6EF7635400584028C8388F0
:104BD000048B48F6FF752C404FF6FF452C400D889E
:104BE0004FF6FF7606EA05252C434FF6DF752A407F
:104BF0000D8906EA05152A434D8806EA05152A435C
:104C0000444DA84202D0494DA8421DD14FF67F75B0
:104C10002A404D894FF6FF7606EA05152A434FF6DE
:104C2000BF752A408D8806EA05152A434FF6FF35E1
:104C30002B404FF2FF752B408D8906EA85052B43EB
:104C4000CD8906EA85052B4383800483CD880587BB
:104C5000028470BD70B5002400220023058C4FF63D
:104C6000FF6635400584028C8388848B4FF68F75F0
:104C70002C404FF6FC752C400D882C434FF6FF5509
:104C80002A400D894FF6FF7606EA05252A434D880E
:104C900006EA05252A431F4DA84202D0234DA8420B
:104CA0001DD14FF2FF752A404D894FF6FF7606EA77
:104CB00005252A434FF6FF352A408D8806EA05254B
:104CC0002A434EF6FF752B404DF6FF752B408D891C
:104CD00006EA05152B43CD8906EA05152B4383808B
:104CE0008483CD888587028470BD70B5002200233F
:104CF0000024058C4EF6FF7635400584038C8488AD
:104D0000828B48F6FF752A404FF6FF452A400D88F2
:104D100020E00000002C014000040040000800409A
:104D2000000C00400010004000140040003401401E
:104D3000004C014000500140005401400018004068
:104D4000001C0040002000400040014000440140A1
:104D5000004801404FF6FF7606EA05252A434DF646
:104D6000FF752B400D8906EA05352B434D8806EA71
:104D700005352B43FA4DA84202D0FA4DA84208D17E
:104D80004BF6FF752C408D894FF6FF7606EA8515A8
:104D90002C4384808283CD88A0F84050038470BD6A
:104DA000828B4FF2FF331A408283828B4FF6FF7360
:104DB00003EA01231A4382837047F0B50C46154677
:104DC000002200210026078C4EF6FF7C07EA0C0724
:104DD0000784828B018C4FF6FF7707EA043640F692
:104DE000FF473A404FF6FF7707EA05273A434FF669
:104DF000FF7707EA03373A43D94FB8420ED0D94F6D
:104E0000B8420BD0B0F1804F08D0D74FB84205D090
:104E1000D64FB84202D0D64FB84206D14DF6FF77F2
:104E2000394046F48057394305E047F6FF5739408B
:104E300044F48057394382830184F0BD828B4FF65E
:104E4000F3731A408283828B0A4382837047F0B5E2
:104E50000C461546002200210026078C4FF6FF6CF9
:104E600007EA0C070784828B018C4FF6FF7707EA6D
:104E700004264FF60C773A404FF6FF7707EA031700
:104E80002F433A43B64FB8420ED0B64FB8420BD07C
:104E9000B0F1804F08D0B44FB84205D0B34FB842FC
:104EA00002D0B34FB84206D14FF6FF57394046F40F
:104EB0008077394305E04FF2FF57394044F480775B
:104EC000394382830184F0BD028B4FF2FF331A40D5
:104ED0000283028B4FF6FF7303EA01231A43028316
:104EE0007047F0B50C461546002200210026078CBD
:104EF0004FF6EF7C07EA0C070784028B018C4FF614
:104F0000FF7707EA041640F6FF473A404FF6FF776F
:104F100007EA03373A434FF6FF7707EA05273A4394
:104F20008F4FB8420ED08F4FB8420BD0B0F1804FA8
:104F300008D08D4FB84205D08C4FB84202D08C4F6C
:104F4000B84206D14FF6DF77394046F010073943B3
:104F500005E04FF65F77394044F01007394302838C
:104F60000184F0BD028B4FF6F3731A400283028B6B
:104F70000A4302837047F0B50C4615460022002113
:104F8000068C4FF6FE773E400684028B018C4FF66E
:104F90000C7632407E1C06EA03162E433243704ED6
:104FA000B0420ED06F4EB0420BD0B0F1804F08D05F
:104FB0006D4EB04205D06D4EB04202D06C4EB04244
:104FC00006D14FF6FD76314044F00106314305E04D
:104FD0004FF6F576314044F00106314302830184F7
:104FE000F0BD70B505460C465D4885420ED05D4863
:104FF00085420BD0B5F1804F08D05B48854205D083
:105000005A48854202D05A48854200D100E000BF8C
:10501000208850B92389A28861882846FFF7ABFF12
:10502000E1882846FFF79EFF25E0208804280AD162
:105030002389A28861882846FFF753FFE188284624
:10504000FFF742FF17E0208808280AD12389A288A9
:1050500061882846FFF7FBFEE1882846FFF7EEFE51
:1050600009E02389A28861882846FFF7A6FEE18827
:105070002846FFF795FE70BD2DE9F04105460C4628
:1050800000260127608808B9022600E00026A088D3
:10509000012801D1022700E001272088A0B9238937
:1050A000A28861882846FFF766FFE1882846FFF757
:1050B00059FF23893A4631462846FFF712FFE18817
:1050C0002846FFF701FF13E02389A288618828465C
:1050D000FFF707FFE1882846FFF7F6FE23893A46E7
:1050E00031462846FFF747FFE1882846FFF73AFF99
:1050F000BDE8F0810A884B881A438B881A43CB8815
:105100001A430B891A434B891A438B891A43A0F817
:10511000442070474FF6FF71818000210180C180DB
:105120004180017270470021018041808180C180EF
:10513000018141818181C1817047002101804180CD
:10514000012181800021C1800181704700210180FF
:1051500041808180C180018141818181704700004F
:10516000002C0140003401400004004000080040D1
:10517000000C004021B1028842F00102028004E0EC
:1051800002884FF6FE731A400280704731B1B0F8C2
:10519000442042F40042A0F8442005E0B0F8442046
:1051A000C2F30E02A0F8442070471AB183890B4362
:1051B000838102E083898B438381704781827047BA
:1051C00041EA0203A0F8483070471AB183890B43C3
:1051D000838102E083898B438381704701894FF685
:1051E000F8721140018170470A46002101894FF68B
:1051F0008F73194011430181704730B504460D4645
:1052000029462046FFF7F0FF208940F00700208163
:1052100030BD2DE9F04104460D4616461F46602D6F
:1052200006D13B46012231462046FFF75AFE05E0F3
:105230003B46012231462046FFF79DFE2946204687
:10524000FFF7D2FF208940F007002081BDE8F08100
:1052500030B50C4600210189C9B24FF6FF7505EA49
:105260000325154325432943018130BD2DE9F04134
:1052700005460E4617469846002443463A463146B0
:105280002846FFF7E5FF2C894FF6F870044044F0FC
:1052900007044FF68F70044044F070042C81BDE881
:1052A000F081F0B504460D4616461F463B46324691
:1052B00029462046FFF7CCFF208940F4804020811A
:1052C000F0BD0185828270470A46002101884FF6B1
:1052D0008F731940114301807047F0B50C46154695
:1052E0001E460021002200230189028B038C4FF609
:1052F000F877394021434FF6FC473A4040F2011716
:105300003A434FF6DD773B404FF6FF7707EA061743
:105310002F433B43018102830384F0BD0A460021F1
:10532000018B4FF68F7319401143018370470A4672
:105330000021018B48F6FF7319404FF6FF7303EA13
:1053400002231943018370470A460021818B4FF6DF
:105350008F7319401143818370470A460021818B66
:1053600048F6FF7319404FF6FF7303EA022319430F
:105370008183704721B1028842F08002028004E0FC
:1053800002884FF67F731A400280704721B18288ED
:1053900042F00402828004E082884FF6FB731A40D8
:1053A0008280704721B1828842F00802828004E046
:1053B00082884FF6F7731A408280704721B1828845
:1053C00042F00102828004E082884FF6FE731A40A8
:1053D000828070470A460021018B4FF6F77319400F
:1053E0001143018370470A460021018B4FF2FF737E
:1053F00019404FF6FF7303EA0223194301837047F4
:105400000A460021818B4FF6F773194011438183BF
:1054100070470A460021818B4FF2FF7319404FF607
:10542000FF7303EA02231943818370470A46002170
:10543000018B4FF6FB7319401143018370470A46F5
:105440000021018B4FF6FF3319404FF6FF7303EA3B
:1054500002231943018370470A460021818B4FF6CE
:10546000FB7319401143818370470A460021818BE9
:105470004FF6FF3319404FF6FF7303EA0223194337
:10548000818370470A460021018B4FF67F731940D4
:105490001143018370470A460021018BC1F30E01BD
:1054A0004FF6FF7303EA02231943018370470A464C
:1054B0000021818B4FF67F73194011438183704720
:1054C0000A460021818BC1F30E014FF6FF7303EAF8
:1054D00002231943818370470A460021018C4FF64D
:1054E000FD7319401143018470470A460021018C65
:1054F0004FF6F77319401143018470470A460021A3
:10550000018C4FF6DF7319404FF6FF7303EA021365
:105510001943018470470A460021018C4FF67F73BE
:1055200019404FF6FF7303EA0213194301847047D1
:105530000A460021018C4FF6FF5319404FF6FF73C6
:1055400003EA02231943018470470A460021018CB3
:105550004FF2FF7319404FF6FF7303EA022319431A
:10556000018470470A460021018C4DF6FF731940F3
:105570004FF6FF7303EA023319430184704730B5D5
:10558000002301248C40A3B2048C9C430484048C2B
:1055900002FA01F5ADB22C43048430BD30B50023CE
:1055A00004248C40A3B2048C9C430484048C02FA2F
:1055B00001F5ADB22C43048430BD70B50346002024
:1055C00000241846183001258D40ACB21D8CA5432F
:1055D0001D8409B1082909D100EB6100056825F097
:1055E000700505600568154305600EE00D1FC5F3E5
:1055F0004E052844056825F4E045056005684FF62A
:10560000FF7606EA02263543056070BD21B10288A7
:1056100042F00202028004E002884FF6FD731A4055
:105620000280704721B1028842F00402028004E047
:1056300002884FF6FB731A400280704721B18288BE
:1056400042F08002828004E082884FF67F731A4025
:105650008280704702884FF6F7731A4002800288F2
:105660000A430280704782884FF68F731A40828007
:1056700082880A438280704702894FF6F8731A4085
:10568000028102890A430281704702894FF67F73C3
:105690001A40028102890A4302817047818470475F
:1056A0008185704781867047018770478187704781
:1056B000A0F84010704702884FF6FF431A4002805E
:1056C00002880A43028070470146888E704701466F
:1056D000088F70470146888F70470146B1F8400037
:1056E00070470146888C70470146088D7047024616
:1056F0000020138A0B400BB1012000E0002070470E
:10570000CA430282704730B50246002000230024BD
:10571000158A05EA0103958905EA010413B10CB164
:10572000012000E0002030BDCA4302827047000023
:1057300000206F49086048608860C86048628862DD
:10574000C8626C4888630020C86370470021684ABB
:10575000516847F6FF629143027D83681A434368AC
:105760001A43C3681A4303681A4303691A4311436F
:105770005F4A51607047002101750160416081609E
:10578000C160016170475C49086070475849096809
:1057900021F00301564A1160114609680143116066
:1057A00070475348006800F00300704729B1504A21
:1057B000D26B02434E4BDA6304E04D4AD26B824314
:1057C0004B4BDA6370474D49086070470021484BE6
:1057D00002689A601A46D1686FF30A01D0E9012382
:1057E0001A43C3681A4303691A431143404AD160FC
:1057F00070470021016041608160C16001617047B4
:105800003B480069C0B2704708B5014600200090CF
:1058100037481430084400900098006808BD002103
:10582000334B02685A6242689A621A46D16A21F082
:10583000F701D0E902231A4303691A4343691A4363
:1058400011432B4AD16270474FF0FF3101600021B4
:1058500041608160C1600161416170472448006B13
:1058600070472348803000687047214980310860C4
:1058700070471F48806C704720491431086070479A
:105880001E491831086070471C491C310860704778
:105890001A49203108607047194908607047184953
:1058A000091D0860704701218143154A08321160C3
:1058B000704713490C3108607047014600200C4ABC
:1058C000526B0A400AB1012000E0002070470849ED
:1058D0008863704701460020054A526B0A400AB1AE
:1058E000012000E0002070470149886370470000F4
:1058F00000800140FF07C000A00030428C0530420C
:10590000AC01304201684FF6FE7211400160002187
:10591000016041608160C1608D49884208D18C4935
:105920000839496841F00F01894A083A51608AE014
:1059300087491431884208D185490839496841F0BE
:10594000F001834A083A51607DE08149283188425C
:1059500008D17F490839496841F470617C4A083AA6
:10596000516070E07A493C31884208D17849083961
:10597000496841F47041764A083A516063E07449DD
:105980005031884208D172490839496841F4702180
:105990006F4A083A516056E06D496431884208D137
:1059A0006B490839496841F47001694A083A516005
:1059B00049E067497831884208D165490839496822
:1059C00041F07061624A083A51603CE061498842A6
:1059D00006D1011F096841F00F01021F116032E07A
:1059E0005C491431884208D15A49091F096841F0BD
:1059F000F001584A121F116025E0564928318842AB
:105A000008D15449091F096841F47061514A121FB5
:105A1000116018E04F493C31884208D14D49091FB7
:105A2000096841F470414B4A121F11600BE049496B
:105A30005031884207D14749091F096841F4702154
:105A4000444A121F1160704710B50022026847F6E1
:105A5000F0739A430C6A8B6823430C6923434C69A7
:105A600023438C692343CC6923434C6A23438C6AC8
:105A700023431A430260CB6843600B6883604B6822
:105A8000C36010BD0021016041608160C16001619F
:105A900041618161C161016241628162704721B1EE
:105AA000026842F00102026004E002684FF6FE73F1
:105AB0001A40026070471AB103680B43036002E0AA
:105AC00003688B4303607047416070470146486834
:105AD00080B2704701460020002201F080531BB1C4
